:1000000057C071C070C06FC006C16DC06CC06BC0FE
:100010006AC069C068C067C066C065C064C063C0AC
:1000200062C061C060C07E818181817E000082FFEC
:100030008000E29191898986418189899563302880
:100040002422FF204F89898989717E898989897055
:100050000101E11109077689898989760E919191CB
:10006000917E10A8A8A8A840FF08080808F0000082
:1000700000FA000000087E8880400008FE0909029E
:100080007880808040F8708888888840FF10102829
:100090004480003E41414122264949493200003E08
:1000A00041413E007F0608307F007F09007F090044
:1000B00011241FBECFE5D4E0DEBFCDBF10E0A0E627
:1000C000B0E0E0ECF9E002C005900D92A836B1076F
:1000D000D9F710E0A8E6B0E001C01D92A339B1073E
:1000E000E1F7A3D26BC48CCF87B93E9A3D9886B115
:1000F000876086B9379A369A3699FECF84B195B122
:10010000392F20E0280F311DC901089570E061509A
:10011000704021E030E002C0220F331F6A95E2F701
:100120000DC0C498A901482359234115510511F068
:10013000C59A01C0C598C49A3695279521153105F1
:1001400081F70895C3986CE0E1DFC39A0895EF92B8
:10015000FF920F931F93CF93DF93C39880E892E0B1
:100160006AE0D4DFC0E0D0E01EC02191880F30E00B
:10017000002E02C0359527950A94E2F72170822B54
:100180009F5F983091F790E068E0C0DF0F5F1F4FEE
:100190000830110521F0F70190E080E0E6CF2196CC
:1001A000C430D10569F07E0153E0EE0CFF1C5A9576
:1001B000E1F700E010E08EE690E0E80EF91EEBCFEC
:1001C000C39ADF91CF911F910F91FF90EF90089507
:1001D00082E098E0B7DF86E098E0B4DF80E398E063
:1001E000B1DF80E498E0AEDF80E599E0ABDF80E14D
:1001F00098E0A8DF089590E08F709070880F991FA5
:10020000805C964F9FDF089537D360916A007091AC
:100210006B00CDD208951F920F920FB60F9211244A
:100220008F93809160008F5F809360008F910F901B
:100230000FBE0F901F90189590916000980F9093AB
:10024000600090916D0080918E002091910012C00D
:10025000309160003C53309360009F5F09C09C5315
:100260008F5F02C08851232F322F3F5F8831D0F734
:100270009C33A8F7309160003C3350F790936D00A9
:1002800080938E0020939100089590916D002091AD
:100290008E00309191005BE318C0409160004423D0
:1002A00031F0409160004150409360000DC0509388
:1002B0006000992311F0915007C0222311F02150C2
:1002C00002C0315027E19BE38150882331F790939E
:1002D0006D0020938E0030939100089590916000FE
:1002E00080916100981741F08091600080936100D7
:1002F00080E0A2DF81E0089580E00895CF93DF934E
:1003000010926E0020918E00822F6AE044D2E6E0C7
:100310008E9FF0011124EA5DFF4FAFE6B0E08491BB
:100320008D93319680E0A537B807C9F71092750014
:10033000822F6AE030D286E0989FF0011124EA5DB6
:10034000FF4F88E09491C82FD0E0AEE6B0E0CA0F2E
:10035000DB1F98838F5F31968E30A1F71E961C921B
:100360001E978091600080FF08C01F961C921F9707
:1003700084E250968C93509706C084E21F968C932B
:100380001F9750961C9210927F0020916D00822F33
:100390006AE001D2E6E08E9FF0011124EA5DFF4F92
:1003A00082E19491A82FB0E0A259BF4F9C938F5F38
:1003B00031968831B1F7EEE6F0E0108E822F6AE0D8
:1003C000EAD186E0989FF0011124EA5DFF4F89E1B0
:1003D0009491A82FB0E0A259BF4F9C938F5F3196A4
:1003E0008F31B1F7EEE6F0E0178EDF91CF910895EF
:1003F000CF93DF9310926E0010926F0010927000F6
:10040000E2E6F0E0A1E7B0E084918D93319680E0E0
:10041000E836F807C9F710927700109278008BE061
:100420009491A82FB0E0A259BF4F9C938F5F319653
:100430008131B1F7EEE6F0E0118AEEE6F0E082E11C
:100440009491A82FB0E0A259BF4F9C938F5F319633
:100450008731B1F7EEE6F0E0178AE4E7F0E088E1F3
:100460009491A82FB0E0CEE6D0E0AC0FBD1F9C93D6
:100470008F5F31968E31A1F71E8E1F8EDF91CF9147
:100480000895CF93DF9310926E0010926F00EAE709
:10049000F0E0A0E7B0E084918D93319680E0A6373C
:1004A000B807C9F710927600E0E8F0E089E094918F
:1004B000A82FB0E0A259BF4F9C938F5F31968F3029
:1004C000B1F7EEE6F0E01786E6E8F0E080E194911F
:1004D000A82FB0E0A259BF4F9C938F5F3196863111
:1004E000B1F7EEE6F0E0168AECE8F0E087E19491EF
:1004F000C82FD0E0AEE6B0E0CA0FDB1F98838F5F55
:1005000031968D31A1F75D961C925D975E961C9297
:100510005E975F961C925F97DF91CF910895CF937E
:10052000DF9310926E00E2E9F0E0AFE6B0E0849174
:100530008D93319680E0E839F807C9F7109275007D
:1005400088E09491A82FB0E0CEE6D0E0AC0FBD1FBC
:100550009C938F5F31968E30A1F71E861F86EEE941
:10056000F0E080E19491A82FB0E0A259BF4F9C9396
:100570008F5F31968631B1F7E4EAF0E0A4E8B0E0AD
:1005800084918D93319680E0AA38B807C9F710920C
:100590008A0010928B0010928C0010928D00DF91D7
:1005A000CF910895CF93DF9310926E00E2E9F0E0CF
:1005B000AFE6B0E084918D93319680E0E839F8079A
:1005C000C9F71092750088E09491A82FB0E0CEE6AC
:1005D000D0E0AC0FBD1F9C938F5F31968E30A1F79A
:1005E0001E861F86EEE9F0E080E19491A82FB0E02E
:1005F000A259BF4F9C938F5F31968631B1F7EAEADB
:10060000F0E0A4E8B0E084918D93319680E0AA38C0
:10061000B807C9F710928A0010928B0010928C00D4
:1006200010928D00DF91CF910895EF92FF920F937A
:100630001F93CF93DF9387B3886387BB88B38863A7
:1006400088BBC6DD81B38F7181BB82B3806E82BBF4
:1006500082B5886082BD85E085BD89B7806489BF29
:100660007894EEE6F0E080E090E025E530E0AC0143
:1006700041705070B90102C0660F771F4A95E2F7CA
:10068000619301968032910591F761DD8CE0809352
:100690008E0010926D00CEE3D0E001E010E080E02B
:1006A00023DD80559040BE0196D060936200862F76
:1006B000A2DD87990CC0809192008B3F10F084E1FD
:1006C00004C08F5F8093920081E0B6DD35C08699CB
:1006D0000CC0809192008B3F10F084E104C08F5FCA
:1006E0008093920081E0D1DD27C0859923C080915D
:1006F0009200882309F581E0809392008091680040
:1007000090916900009731F40ADF1093690000931B
:10071000680005C047DF109269001092680017DD7D
:100720008FE79AE1A6E081509040A040E1F700C039
:10073000000002C010929200D1DD882311F0DEDDAE
:1007400006DD8091680090916900009709F0A7CFBD
:100750005BDD7C0145978430910550F449DEF7DC80
:10076000ABE5B4E41197F1F700C00000C7DDEFDCA2
:100770000894E108F108B4E0EB16F10408F08FCF1B
:1007800080DEE5DC8BE594E40197F1F700C0000022
:10079000B5DDDDDC84CF991B79E004C0991F961785
:1007A00008F0961B881F7A95C9F780950895AA1BB3
:1007B000BB1B51E107C0AA1FBB1FA617B70710F04C
:1007C000A61BB70B881F991F5A95A9F7809590957E
:1007D000BC01CD01089597FB092E07260AD077FDAD
:1007E00004D0E5DF06D000201AF4709561957F4FA4
:1007F0000895F6F7909581959F4F0895A0E0B0E099
:10080000E3E0F4E08AC0EC01688179818A819B8110
:10081000611571058105910521F464E279ED8BE59F
:1008200097E02DE133EF41E050E054D079018A01A7
:1008300027EA31E440E050E02ED05B016C01C801B2
:10084000B7012CEE34EF4FEF5FEF25D06A0D7B1D23
:100850008C1D9D1D97FF04C06150704080409048E2
:10086000688379838A839B837F77CB01CDB7DEB79B
:10087000EAE06FC0C3DF089583E690E0BFDF08952C
:10088000A0E0B0E08093630090936400A0936500C3
:10089000B09366000895629FD001739FF001829F1C
:1008A000E00DF11D649FE00DF11D929FF00D839FFF
:1008B000F00D749FF00D659FF00D9927729FB00D9C
:1008C000E11DF91F639FB00DE11DF91FBD01CF01AF
:1008D0001124089597FB092E05260ED057FD04D04C
:1008E0004BD00AD0001C38F4509540953095219596
:1008F0003F4F4F4F5F4F0895F6F790958095709555
:1009000061957F4F8F4F9F4F08952F923F924F9247
:100910005F926F927F928F929F92AF92BF92CF928F
:10092000DF92EF92FF920F931F93CF93DF93CDB798
:10093000DEB7CA1BDB0B0FB6F894DEBF0FBECDBF10
:1009400009942A88398848885F846E847D848C84E1
:100950009B84AA84B984C884DF80EE80FD800C81EA
:100960001B81AA81B981CE0FD11D0FB6F894DEBFCD
:100970000FBECDBFED010895A1E21A2EAA1BBB1B2D
:10098000FD010DC0AA1FBB1FEE1FFF1FA217B3075B
:10099000E407F50720F0A21BB30BE40BF50B661F71
:1009A000771F881F991F1A9469F760957095809535
:1009B00090959B01AC01BD01CF010895F894FFCF44
:0809C00005C80301000000005E
:00000001FF
